:100200003DC000004BC0000049C0000047C00000D6
:1002100045C0000043C0000041C000003FC00000D6
:100220003DC000003BC0000039C0000037C00000E6
:1002300035C0000033C0000031C00000BCC0000069
:100240002DC000002BC0000029C0000027C0000006
:1002500025C0000023C0000021C000001FC0000016
:100260001DC000001BC0000019C0000017C0000026
:1002700015C0000013C0000011C0000011241FBEF3
:10028000CFEFCDBFDFE3DEBF28E3A0E0B8E301C0DE
:100290001D92AA30B207E1F7BDD00CC1B1CF9FB714
:1002A000F89488E08093840A80918E0A81FFFCCFC5
:1002B00080918D0AE091A20AF091A30A2091003862
:1002C0003091013840910238509103389FBF80FF30
:1002D00007C0E730F10520F42F5F3F4F4F4F5F4FCE
:1002E000BF0176956795CF01860F911DE62FE695A4
:1002F000E695762F72957F70E71BFF0B67FD3196B1
:10030000E80FF91FA0E3B3E0BCD06E0F7F1F811D83
:10031000911D0895CF92DF92EF92FF92CF93DF93DA
:10032000BEDFEB0188EEC82E83E0D82EE12CF12C45
:10033000B6DF6C1B7D0B683E7340A0F0C114D10486
:10034000E104F10439F4DF91CF91FF90EF90DF9059
:10035000CF90089581E0C81AD108E108F108C8518A
:10036000DC4FE6CFC114D104E104F10409F7EBCF6F
:1003700090E2811119C0909326049091200495FD7C
:100380000AC09FB7F894811112C080913504877F0D
:10039000809335049FBF80E482959091010A8095F7
:1003A00089238093010A089590932504E6CF8091D4
:1003B00035048860EDCF8F9381E080938D0A8FB7ED
:1003C0008F93EF93FF93E0E0F8E39F9368948FEFB0
:1003D0000DC0E89484819581805D9C4F84839583D2
:1003E000885E934080F0848395838FEF9081981B83
:1003F000919390819F4F919390819F4F9193908182
:100400009F4F919336F39F91FF91EF918F918FBF03
:100410008F91189588ED90E084BF90936100E0E0A3
:10042000F6E083E582838DE0858390E2938381E02B
:1004300080832FE0209302028093030A2EEF209303
:10044000260A2093270A2BE02093000AE0E8FAE02E
:100450002DEF31E026A737A7118220E82283848779
:1004600081E1808378949093210480913504877F83
:100470008093350481E07CDF4DDF80E079DF4ADF67
:10048000F9CF09D0A59F900DB49F900DA49F800D2A
:10049000911D11240895A29FB001B39FC001A39F95
:1004A000700D811D1124911DB29F700D811D1124AD
:0804B000911D0895F894FFCF9F
:0400000300000200F7
:00000001FF
